:020000040000fa
:080000000002040000000000f2
:020000040000fa
:100400000f802000807f2200000188000000000093
:10041000050007000c000700960202000000000023
:100420000040da000000fe004440a9000000200067
:100430000000e0000300320000002000a00188005e
:100440004440a80000000600e02d2000010020002c
:100450001600370062004000e080480091018800eb
:100460009001ba0062004000e080480091018800dd
:100470009002ba0062004000e08048000002eb00f9
:100480006028e10005003a008301e900070033001d
:10049000038009000059eb00040037006128e100e7
:1004a000010032000082eb00050007009101880086
:1004b0001001ba000200e000e6ff3a00000005006b
:1004c000910188008002780062004000e0804800ce
:1004d0003559ba008301e900080032002559ba00f5
:1004e0008301e900050032000400e000f4ff32005f
:1004f00015d9ba008301e900f1ff3a0000000600b7
:100500000000fa000000eb00001688000080eb00fd
:100510001016880091168000000c220000807000e8
:10052000901688000080fa00000006000200fa0021
:10053000f3ff07000000eb00000f78000100370018
:100540001e0fe800200020009e0f1000fcff34006a
:1005500000003700a01680004600de006100600049
:100560000000e00003003a00f00f200010168800a1
:10057000f8ff3700a01680004700de006100600031
:100580000000e00003003a000000eb0010168800b5
:10059000f0ff3700a01680004d00de006100600013
:1005a0000000e000ebff3a0010168000510520002b
:0c05b0000100680010168800e6ff37000c
:020000040000fa
:10000800e0020000e0020000e0020000e002000060
:10001800e0020000e0020000e0020000e002000050
:10002800e0020000e0020000e0020000e002000040
:10003800e0020000e0020000e0020000e002000030
:020000040000fa
:020000040000fa
:0405bc00000000003b
:020000040000fa
:0405c0000000fe0039
:00000001FF
