:020000040000fa
:080000000002040000000000f2
:020000040000fa
:100400000f852000807f220000018800000000008e
:10041000050007000c000700c002020000000000f9
:100420000040da000000fe004440a9004002200025
:100430000000e0000300320000002000a00188005e
:100440004440a80000000600c04820000100200031
:100450001600370062004000e080480091018800eb
:100460009001ba0062004000e080480091018800dd
:100470009002ba0062004000e08048000002eb00f9
:100480006028e10005003a008301e900070033001d
:10049000038009000059eb00040037006128e100e7
:1004a000010032000082eb00050007009101880086
:1004b0001001ba000200e000e6ff3a00000005006b
:1004c000910188008002780062004000e0804800ce
:1004d0003559ba008301e900080032002559ba00f5
:1004e0008301e900050032000400e000f4ff32005f
:1004f00015d9ba008301e900f1ff3a0000000600b7
:100500000000fa000000eb00001688003000200018
:100510001016880091168000000c200000807000ea
:10052000901688000080fa00000006000000fa0023
:100530000000eb0020088800210880000002200055
:1005400000807000200888000000eb000008880090
:100550000080eb0010088800510a200091407800cc
:10056000f0c8b30000c060000044a000a5e0b700e0
:100570008460a9009460a8000080fa0000000600d2
:100580001400fa00881f7800e4004700a047280004
:1005900007000900b05878008100b1008000b10068
:1005a000ec00470030482800904878000100e8003f
:1005b0008040eb00014878000000e8008040eb003c
:1005c000014878000000e8008040eb000148780016
:1005d0000000e8008040eb00014878000000e800df
:1005e0008040eb00014878000000e8008040eb000c
:1005f000014878000000e8008040eb0001487800e6
:100600000000eb0010079800bdff0700ac000700da
:100610004c000700c5ff070005e1a80000003700f7
:10062000a01680004600de00610060000000e000cf
:1006300012003a000000eb00100798000c00370091
:100640001e00900070004000000178009e009000a5
:10065000640047000080400010407800820078006d
:100660003d0007001e0090000000e8001007980001
:100670001e009000e70f5000f1ff3400a01680002c
:1006800001052000010060000000e000e4ff3a00e6
:100690000000eb00100798000b0037001e049000cc
:1006a0001e00900070004000450007008040780068
:1006b0006c00470000004400014878001e009000d4
:1006c0000000e800100798001e009000e70f50009f
:1006d000f2ff3400d2ff370000a0fe003400f80023
:1006e000881f780008c0b300a80188004f04780074
:1006f0000200fa0011168000000820000080680047
:10070000101688008460a9000000eb00000f78003c
:10071000010037001e0fe8000080eb009e0f100064
:10072000fcff3a001016800001082000010068005c
:10073000101688000080fa003400f9000080fe00e6
:10074000004006000000fa00d582a800d382a9006c
:100750000080fa00000006000600fa00204798001a
:10076000210798002a000700d582a90020c0b30005
:1007700047000700004f78002e0090004800de0080
:1007800043000700004f78002e0090004000070053
:10079000004f78002e4090003d000700004f780089
:1007a000d582a8002a000700610060000000e00078
:1007b000fcff3a001e0007000080fa00000006005f
:1007c0000400fa0010079800d582a90030c0b300d9
:1007d0002f000700004f78001e0090004800de0048
:1007e0002b000700004f78001e0090002800070033
:1007f000004f78000040eb0025000700004f780014
:10080000d582a8001e80fb000080fa0000000600d0
:100810000200fa00d582a90060c0b3001c000700e6
:10082000004f7800d582a8000080fa000000060082
:100830000200fa00d582a90040c0b30014000700ee
:10084000004f7800d582a8000080fa000000060062
:100850000200fa00d582a90050c0b3000c000700c6
:10086000004f78000040eb0009000700004f7800bf
:10087000d582a8000000eb001e81fb0001f02f00d4
:1008800001006000020070000080fa000000060015
:100890000200fa00004f78001e80fb004013880021
:1008a00060c2bf00614060000004e000fcff320055
:1008b000401380000080fb000080fa00000006006a
:1008c0000000fa008820a9009820a800001220004b
:1008d0001013880000002800001388000080fa0030
:1008e000000006000000fa008820a9000080fa003d
:0408f00000400600be
:020000040000fa
:100008008e0400008e0400008e0400008e040000a0
:100018008e0400008e0400008e0400008e04000090
:100028008e0400008e0400008e0400006c030000a3
:100038008e0400008e0400008e0400008e04000070
:100048008e0400008e0400008e0400008e04000060
:100058008e0400008e0400008e0400008e04000050
:100068008e0400008e0400008e0400008e04000040
:100078008e0400008e0400008e0400008e04000030
:100088008e0400008e0400008e0400008e04000020
:100098008e0400008e0400008e0400008e04000010
:1000a8008e040000720400008e0400008e0400001c
:1000b8008e0400008e0400008e0400008e040000f0
:1000c8008e0400008e0400008e0400008e040000e0
:1000d8008e0400008e0400008e0400008e040000d0
:1000e8008e0400008e0400008e0400008e040000c0
:1000f8008e0400008e0400008e0400008e040000b0
:100108008e0400008e0400008e0400008e0400009f
:100118008e0400008e0400008e0400008e0400008f
:100128008e0400008e0400008e0400008e0400007f
:100138008e0400008e0400008e0400008e0400006f
:100148008e0400008e0400008e0400008e0400005f
:100158008e0400008e0400008e0400008e0400004f
:100168008e0400008e0400008e0400008e0400003f
:100178008e0400008e0400008e0400008e0400002f
:100188008e0400008e0400008e0400008e0400001f
:100198008e0400008e0400008e0400008e0400000f
:1001a8008e0400008e0400008e0400008e040000ff
:1001b8008e0400008e0400008e0400008e040000ef
:1001c8008e0400008e0400008e0400008e040000df
:1001d8008e0400008e0400008e0400008e040000cf
:1001e8008e0400008e0400008e0400008e040000bf
:0801f8008e0400008e040000db
:020000040000fa
:100208008e0400008e0400008e0400008e0400009e
:100218008e0400008e0400008e0400008e0400008e
:100228008e0400008e0400008e0400006c030000a1
:100238008e0400008e0400008e0400008e0400006e
:100248008e0400008e0400008e0400008e0400005e
:100258008e0400008e0400008e0400008e0400004e
:100268008e0400008e0400008e0400008e0400003e
:100278008e0400008e0400008e0400008e0400002e
:100288008e0400008e0400008e0400008e0400001e
:100298008e0400008e0400008e0400008e0400000e
:1002a8008e040000720400008e0400008e0400001a
:1002b8008e0400008e0400008e0400008e040000ee
:1002c8008e0400008e0400008e0400008e040000de
:1002d8008e0400008e0400008e0400008e040000ce
:1002e8008e0400008e0400008e0400008e040000be
:1002f8008e0400008e0400008e0400008e040000ae
:100308008e0400008e0400008e0400008e0400009d
:100318008e0400008e0400008e0400008e0400008d
:100328008e0400008e0400008e0400008e0400007d
:100338008e0400008e0400008e0400008e0400006d
:100348008e0400008e0400008e0400008e0400005d
:100358008e0400008e0400008e0400008e0400004d
:100368008e0400008e0400008e0400008e0400003d
:100378008e0400008e0400008e0400008e0400002d
:100388008e0400008e0400008e0400008e0400001d
:100398008e0400008e0400008e0400008e0400000d
:1003a8008e0400008e0400008e0400008e040000fd
:1003b8008e0400008e0400008e0400008e040000ed
:1003c8008e0400008e0400008e0400008e040000dd
:1003d8008e0400008e0400008e0400008e040000cd
:1003e8008e0400008e0400008e0400008e040000bd
:0803f8008e0400008e040000d9
:020000040000fa
:1008f400686f00006c610000206d00006f6e0000e6
:1009040000000000000000000000000000000000e3
:0409140000000000df
:020000040000fa
:0409180000000000db
:020000040000fa
:04091c000000fe00d9
:00000001FF
